:020000040800F2
:10000000D0800020CD030008F7850008D97F0008C4
:10001000F5850008B5780008859600080000000006
:1000200000000000000000000000000015030008B0
:10003000817B000800000000690300083189000886
:10004000E7030008E7030008E7030008E7030008E8
:10005000E7030008E7030008E7030008857B0008C2
:10006000E7030008397C0008E7030008E7030008FD
:10007000E7030008E7030008E7030008E7030008B8
:10008000E7030008E7030008E7030008E7030008A8
:10009000E7030008E7030008E7030008E703000898
:1000A000518B0008E7030008E7030008E703000896
:1000B000E7030008758B0008E7030008E703000862
:1000C000E7030008E7030008E7030008E703000868
:1000D000E7030008DD930008E7030008E7030008D2
:1000E000E7030008E7030008E70300082D8D000878
:1000F000E7030008E7030008E7030008E703000838
:10010000E7030008E7030008E7030008E703000827
:10011000E7030008E7030008E58C0008098D0008E4
:10012000E7030008E7030008E7030008E703000807
:10013000E7030008E7030008E7030008E7030008F7
:10014000E7030008E7030008E7030008E7030008E7
:10015000E7030008E7030008B9780008E703000890
:10016000E7030008E7030008E7030008E7030008C7
:10017000E7030008E7030008E7030008E7030008B7
:10018000E7030008E703000800F002F800F0B2F807
:100190000AA090E8000C82448344AAF10107DA45E2
:1001A00001D100F0A7F8AFF2090EBAE80F0013F082
:1001B000010F18BFFB1A43F0010318470036010076
:1001C000203601000A444FF0000C10F8013B13F0F8
:1001D000070408BF10F8014B1D1108BF10F8015BA0
:1001E000641E05D010F8016B641E01F8016BF9D193
:1001F00013F0080F1EBF10F8014BAD1C0C1B09D1EA
:100200006D1E58BF01F801CBFAD505E014F8016B5B
:1002100001F8016B6D1EF9D59142D6D370470000ED
:100220000023002400250026103A28BF78C1FBD8FF
:10023000520728BF30C148BF0B6070476E2906F0D7
:100240001580702905F02185662912F00482652940
:1002500012F00182672912F0FE81612912F0FD81FE
:1002600003681B0A28BF41F08001692905F09284C8
:10027000642905F08F84752905F08C846F2906F0B8
:100280001B83782905F0ED84E92906F0B582E4297D
:1002900006F0B282F52906F0AF82EF2906F0188346
:1002A000F82905F0EC840368DB0928BF41F08001E0
:1002B000632906F02482732906F02982E32906F0D7
:1002C0002785F32906F02C85002070471FB512F012
:1002D00074F906F007FB04000020002111F0A4FAD5
:1002E000401C60600020002111F088FAE0601FBD12
:1002F00010B510BD06F0AEFD1146FFF7E7FF0DF09B
:10030000D1FE06F0D5FD03B4FFF7F2FF03BC0AF0FF
:100310000EFD00002A4B19680868B0E8F04F80F322
:100320000988BFF36F8F4FF0000080F3118870478A
:100330000000000006480068006880F3088862B684
:1003400061B6BFF34F8FBFF36F8F00DF00BF00BFF9
:1003500008ED00E0DFF80C00016841F47001016075
:10036000704700BF88ED00E0EFF30980BFF36F8FA7
:10037000134B1A681EF0100F08BF20ED108A20E9F9
:10038000F04F106008B44FF0500080F31188BFF3B5
:100390004F8FBFF36F8F10F07FFB4FF0000080F3A3
:1003A000118808BC19680868B0E8F04F1EF0100FFB
:1003B00008BFB0EC108A80F30988BFF36F8F7047D5
:1003C000A8000020EFF3058070470000094880472F
:1003D00009480047FEE7FEE7FEE7FEE7FEE7FEE727
:1003E000FEE7FEE7FEE7FEE704480549054A064B3F
:1003F000704700005189000889010008D06E002074
:10040000D0800020D0700020D0700020FE4880ED09
:100410003A0A70472DE9F047DFF8EC9300262DEDFE
:100420000A8B0446B0EE408AF0EE608A8846354674
:100430003746D9F8AC0011F0C2FC53EC182B11F080
:10044000E9FC6FD3D9F8B00011F0B9FC53EC182BCC
:1004500011F01AFEF5D3B4F90000B4F90610401AF1
:1004600011F0ADFC53EC182B11F0D4FC00D2012696
:10047000B4F90E00B4F91410401A11F0A0FC53ECBA
:10048000182B11F0C7FC00D2761CB4F91C00B4F98B
:100490002210401A11F093FC53EC182B11F0BAFC07
:1004A00000D2761C9FEDD90B012E3BDC53EC102BB8
:1004B00051EC180B11F0EAFC8946064649EC180B82
:1004C000B4F90000B4F90610401A11F078FC53ECAE
:1004D000182B11F0D9FD00D20125B4F90E00B4F9A2
:1004E000141049EC186B401A11F069FC53EC182BEE
:1004F00011F0CAFD00D26D1CB4F91C00B4F9221031
:1005000049EC186B401A11F05AFC53EC182B11F0FF
:10051000BBFD00D26D1C002D05DD0220BDEC0A8B59
:10052000BDE8F08765E000269FEDBACB06EB4609F3
:1005300004EB8905B5F90A0011F041FC98ED048B34
:1005400053EC182B11F0AEFE41EC190BB5F9040079
:1005500011F035FC53EC182B11F0A4FE53EC192BC1
:1005600011F094FC41EC190BB5F9080011F027FCCF
:1005700098ED028B53EC182B11F094FE41EC1A0B02
:10058000B5F9020011F01BFC53EC182B11F08AFE98
:1005900053EC1A2B11F07AFC41EC1A0BB5F906005A
:1005A00011F00DFC98ED008B53EC182B11F07AFE36
:1005B00041EC1B0B34F9290011F001FC53EC182B12
:1005C00011F070FE53EC1B2B11F060FC53EC1A2B56
:1005D00011F07EF953EC192B11F07AF953EC1C2B26
:1005E00011F018FC00D27F1C761C032E9EDB022F1C
:1005F00001DA012092E7002090E788490A684B68F9
:10060000D00180EAD20080EA031048608B68520370
:1006100080EAC30382EA5312520282EAD0208B603E
:100620000860704710B52DED048BF0EE408AFFF79F
:10063000E4FF00EE100AB8EE400ADFED790A20EE82
:10064000200A9FED789A20EE090A09F0ADFAB0EE83
:10065000408AFFF7D2FF00EE100AB8EE400A20EE03
:10066000090AB5EEC00AF1EE10FA01D1B7EE000AA0
:1006700010EE100A11F000FF41EC100B09F048FBDE
:100680009FED691B51EC100B53EC112B11F0FEFB8D
:1006900011F0ECF800EE100A09F021FE20EE280A15
:1006A00020EE080ABDEC048B10BD2DE9F041054693
:1006B0002DED048BB0EE608AF0EE408A0F4618EE06
:1006C000100A11F0D9FE97ED301B53EC112B11F0ED
:1006D000DDFB41EC190B18EE900A11F0CDFE95ED03
:1006E000301B53EC112B11F0D1FB53EC192B11F0F3
:1006F000EFF80024C5E9300118EE100A11F0BCFE35
:1007000007EBC40898ED001B53EC112B11F0BEFB56
:1007100041EC190B18EE900A11F0AEFE05EBC40681
:1007200096ED001B53EC112B11F0B0FB53EC192B81
:1007300011F0CEF8C6E9000118EE100A11F09CFE87
:1007400098ED241B53EC112B11F0A0FB41EC190B7D
:1007500018EE900A11F090FE96ED241B53EC112B2D
:1007600011F094FB53EC192B11F0B2F8641CC6E99C
:100770002401062CC0DB002418EE100A11F07CFEC8
:1007800041EC100B07EBC40090ED121B51EC100B69
:1007900053EC112B11F07AFB41EC190B18EE900A77
:1007A00011F06AFE05EBC40696ED121B53EC112BFB
:1007B00011F06CFB53EC192B11F08AF8641CC6E99C
:1007C0001201092CD8DB002418EE100A11F054FE97
:1007D00041EC100B07EBC40090ED0C1B51EC100B1F
:1007E00053EC112B11F052FB41EC190B18EE900A4F
:1007F00011F042FE05EBC40696ED0C1B53EC112BD9
:1008000011F044FB14E000005061002000000000E3
:100810000000044000000000000000007001002003
:10082000DB0FC9400000802F00000000000000C066
:1008300053EC192B11F04CF8641CC6E90C01032C85
:10084000C2DBBDEC048BBDE8F0812DE9F04F04461E
:100850002DED068B83B00D46086811F0B0FA41EC1F
:100860001A0B686811F0ABFA41EC190BA86811F08B
:10087000A6FA41EC180B94ED300B9FEDFE1B51ECEA
:10088000100B53EC112B11F023F8C4E9300194ED57
:100890000C0B53EC1A2B51EC100B11F019F8C4E9A6
:1008A0000C0194ED0E0B53EC192B51EC100B11F0C5
:1008B0000FF8C4E90E0194ED100B53EC182B51EC1A
:1008C000100B11F005F8C4E9100153EC1A2B51EC90
:1008D0001A0B11F0DBFA029194ED001B064653EC63
:1008E000112B10F0F5FFC4E9000153EC192B51EC6A
:1008F0001A0B11F0CBFA894649EC100B94ED021B50
:10090000054653EC112B51EC100B10F0E1FFC4E93C
:10091000020153EC182B51EC1A0B11F0B7FA8B466D
:100920004BEC100B94ED041B804653EC112B51EC57
:10093000100B10F0CDFFC4E9040153EC192B51EC5E
:10094000190B11F0A3FA019194ED061B074653EC25
:10095000112B10F0BDFFC4E9060153EC182B51EC2C
:10096000190B11F093FA009194ED081B824653EC99
:10097000112B10F0ADFFC4E9080153EC182B51EC1A
:10098000180B11F083FA94ED0A1B53EC112B10F0A5
:100990009FFFC4E90A01029953EC1A2B41EC106B3A
:1009A00051EC100B11F072FA94ED121B53EC112B59
:1009B00010F08EFF49EC105BC4E9120153EC192BC7
:1009C00051EC100B11F062FA94ED141B53EC112B47
:1009D00010F07EFF4BEC108BC4E9140153EC182B84
:1009E00051EC100B11F052FA94ED161B53EC112B35
:1009F00010F06EFF49EC105BC4E9160153EC1A2BA2
:100A000051EC100B11F042FA94ED181B53EC112B22
:100A100010F05EFFC4E91801019953EC192B41EC69
:100A2000107B51EC100B11F031FA94ED1A1B53ECC2
:100A3000112B10F04DFFC4E91A010099554641EC05
:100A400010AB0E4653EC182B51EC100B11F01EFAA4
:100A500094ED1C1B53EC112B10F03AFFC4E91C0160
:100A600053EC1A2B51EC180B11F010FA53EC1A2B13
:100A700011F00CFA94ED1E1B53EC112B10F028FF13
:100A800046EC105BC4E91E0153EC192B51EC100B22
:100A900011F0FCF994ED201B53EC112B10F018FF12
:100AA000C4E9200153EC182B51EC180B11F0EEF9AE
:100AB000894649EC100B074653EC182B51EC100BF0
:100AC00011F0E4F994ED221B53EC112B10F000FF10
:100AD000C4E9220153EC1A2B51EC1A0B11F0D6F990
:100AE000884648EC100B054653EC1A2B51EC100BC2
:100AF00011F0CCF953EC1A2B11F0C8F994ED241B2A
:100B000053EC112B10F0E4FEC4E9240153EC192B33
:100B100051EC190B11F0BAF98A464AEC100B064653
:100B200053EC192B51EC100B11F0B0F953EC192BBD
:100B300011F0ACF994ED261B53EC112B10F0C8FE0C
:100B400049EC107BC4E9260153EC182B51EC100B37
:100B500011F09CF953EC182B11F098F994ED281B27
:100B600053EC112B10F0B4FE48EC105BC4E92801E3
:100B700053EC192B51EC100B11F088F953EC192B95
:100B800011F084F994ED2A1B53EC112B10F0A0FE08
:100B900048EC105BC4E92A0153EC182B51EC100B04
:100BA00011F074F953EC182B11F070F994ED2C1B23
:100BB00053EC112B10F08CFE4AEC106BC4E92C01A5
:100BC00053EC182B51EC100B11F060F953EC182B6F
:100BD00011F05CF994ED2E1B53EC112B10F078FE04
:100BE000C4E92E0103B0BDEC068BBDE8F08F2DE902
:100BF000F04F93462DED108B0D46044693B090EDCB
:100C00000CEB53EC1E2B51EC1E0B11F03FF994ED45
:100C1000000B41EC190B8DED080B94ED308B53EC70
:100C2000102B51EC180B11F031F953EC192B11F07A
:100C300039FB94ED0EDB41EC1F0B53EC1D2B51ECFB
:100C40001D0B11F023F994ED060B41EC190B8DED02
:100C5000060B53EC102B51EC180B11F017F953EC59
:100C6000192B11F01FFB41EC100B8DED040B94EDD3
:100C700010CB03E0000000000000F03F53EC1C2B01
:100C800051EC1C0B11F002F994ED0A0B41EC190B1D
:100C90008DED020B53EC102B51EC180B11F0F6F804
:100CA00053EC192B11F0FEFA41EC110B53EC1D2BF8
:100CB0008DED001B51EC1E0B11F0E8F894ED020BCA
:100CC00041EC190B53EC102B51EC180B11F0DEF822
:100CD00053EC192B11F0E6FA41EC1B0B53EC1C2BD7
:100CE00051EC1E0B11F0D2F894ED040B41EC190BF2
:100CF00053EC102B51EC180B11F0C8F853EC192BD6
:100D000011F0D0FA41EC1A0B53EC1C2B51EC1D0BDB
:100D100011F0BCF894ED080B41EC190B53EC102BBF
:100D200051EC180B11F0B2F853EC192B11F0BAFA80
:100D30009DED020B41EC190B53EC102B51EC1E0BEB
:100D400011F0A4F841EC110B51EC180B8DED101BB8
:100D500094ED160B53EC102B11F098F841EC110B9D
:100D600051EC1E0B8DED0E1B9DED060B53EC102B65
:100D700011F08CF841EC110B51EC180B8DED0C1BA4
:100D800094ED140B53EC102B11F080F841EC110B87
:100D900051EC1E0B8DED0A1B9DED080B53EC102B37
:100DA00011F074F894ED120B41EC1E0B53EC102B68
:100DB00051EC180B11F06AF853EC1E2B11F072FA7B
:100DC0009DED0A1B53EC112B10F082FD9DED0C1BC9
:100DD00053EC112B11F066FA9DED0E1B53EC112B09
:100DE00010F076FD9DED101B53EC112B11F05AFA0B
:100DF0009FEDFE1B53EC112B11F048F89DED020BFB
:100E000041EC1E0B53EC102B51EC1D0B11F03EF876
:100E100041EC110B51EC180B8DED101B94ED1C0BDC
:100E200053EC102B11F032F841EC110B51EC1D0B6F
:100E30008DED0E1B9DED060B53EC102B11F026F8DB
:100E400041EC110B51EC180B8DED0C1B94ED1A0BB2
:100E500053EC102B11F01AF841EC110B51EC1D0B57
:100E60008DED0A1B9DED080B53EC102B11F00EF8C5
:100E700094ED180B41EC1D0B53EC102B51EC180B9F
:100E800011F004F853EC1D2B11F00CFA9DED0A1B28
:100E900053EC112B10F01CFD9DED0C1B53EC112B92
:100EA00011F000FA9DED0E1B53EC112B10F010FD0C
:100EB0009DED101B53EC112B11F0F4F99FEDCB1BA2
:100EC00053EC112B10F0E2FF9DED020B41EC1D0BDA
:100ED00053EC102B51EC1C0B10F0D8FF41EC110B14
:100EE00051EC180B8DED021B94ED220B53EC102BE3
:100EF00010F0CCFF41EC110B51EC1C0B8DED0A1BDB
:100F00009DED060B53EC102B10F0C0FF41EC110BC4
:100F100051EC180B8DED0C1B94ED200B53EC102BAA
:100F200010F0B4FF41EC110B51EC1C0B8DED061BC6
:100F30009DED080B53EC102B10F0A8FF94ED1E0B49
:100F400041EC1C0B53EC102B51EC180B10F09EFFD6
:100F500053EC1C2B11F0A6F99DED061B53EC112B45
:100F600010F0B6FC9DED0C1B53EC112B11F09AF90F
:100F70009DED0A1B53EC112B10F0AAFC9DED021BFA
:100F800053EC112B11F08EF99FED981B53EC112BA4
:100F900010F07CFF9DED040B41EC180B53EC102B73
:100FA00051EC1F0B10F072FF10919DED001B82465B
:100FB00053EC112B10F06AFF41EC110B53EC192B81
:100FC0008DED0A1B51EC1F0B10F060FF53EC192B39
:100FD00010F05CFF41EC110B53EC1A2B8DED081B4C
:100FE0009DED040B51EC100B10F050FF814653ECBB
:100FF0001A2B119110F04AFF41EC110B8DED061BDD
:101000009FED7C0B51EC1B0B53EC102B10F03EFFB3
:1010100053EC1A2B10F03AFF53EC192B10F036FF5B
:101020009DED001B41EC1C0B53EC1B2B51EC110BE9
:1010300010F02CFF074653EC1B2B029110F026FFFB
:1010400053EC1C2B11F02EF99DED061B53EC112BCC
:1010500010F03EFC9DED081B53EC112B10F038FCFA
:101060009DED0A1B53EC112B11F01CF941EC1C0BEC
:101070009FED620B53EC102B10F036FE7DD053EC3D
:10108000192B51EC1B0B10F001FF53EC182B10F037
:10109000FDFE41EC110B53EC1D2B8DED0E1B029947
:1010A00041EC107B51EC100B10F0F0FE41EC110BF9
:1010B0008DED0C1B9DED000B53EC102B9DED040BE7
:1010C00051EC100B10F0E2FE53EC1E2B10F0DEFE84
:1010D00041EC110B53EC192B8DED081B51EC190B46
:1010E00010F0D4FE53EC1E2B10F0D0FE41EC110B8F
:1010F00053EC1D2B8DED0A1B51EC190B10F0C6FEA5
:1011000041EC110B53EC182B8DED061B9DED040BE0
:1011100051EC100B10F0BAFE9DED061B53EC112B99
:1011200011F0C0F853EC1A2B10F0B0FE9DED0A1B25
:1011300053EC112B10F0CCFB9DED081B53EC112B45
:1011400011F0B0F89DED0C1B53EC112B10F0C0FB0F
:101150009DED0E1B53EC112B11F0A4F841EC100B7C
:1011600053EC1A2B8DED060B51EC1B0B10F08EFE81
:101170008846064648EC100B00E065E153EC182B5E
:1011800051EC100B10F082FE41EC110B53EC1E2BB6
:101190008DED041B029941EC107B51EC100B10F00B
:1011A00075FE41EC110B51EC1F0B8DED021B9DEDFB
:1011B000000B53EC102B10F069FE53EC1D2B10F0BC
:1011C00065FE41EC110B53EC1A2B8DED081B51EC15
:1011D0001A0B10F05BFE53EC1D2B10F057FE41EC88
:1011E000110B53EC1E2B8DED001B0BE000000000DB
:1011F0000000E03F00000000000000400000000090
:101200000000000051EC1A0B10F040FE41EC1A0BEC
:1012100053EC182B51EC1F0B10F038FE53EC1A2B2B
:1012200011F040F853EC192B10F030FE9DED001B2F
:1012300053EC112B10F04CFB9DED081B53EC112BC4
:1012400011F030F89DED021B53EC112B10F040FB18
:101250009DED041B53EC112B11F024F841EC100B05
:1012600053EC1D2B8DED040B48EC106B51EC100B67
:1012700010F00CFE41EC110B53EC1E2B8DED001BFE
:10128000119941EC109B51EC100B10F0FFFD41EC5B
:10129000110B53EC182B8DED021B109941EC10AB88
:1012A00051EC100B10F0F2FD41EC1A0B53EC1B2B20
:1012B00051EC1B0B10F0EAFD53EC182B10F0E6FD7F
:1012C00041EC180B53EC1E2B51EC1B0B10F0DEFD08
:1012D00041EC1B0B53EC1D2B51EC1F0B10F0D6FDFA
:1012E00053EC1B2B10F0DEFF53EC192B10F0CEFD4E
:1012F00053EC182B10F0ECFA53EC1A2B10F0D2FF31
:101300009DED021B53EC112B10F0E2FA9DED001B3A
:1013100053EC112B10F0C6FF9DED060B41EC190BA1
:1013200053EC1C2B51EC100B10F086FB41EC180B0E
:1013300053EC1C2B85ED008B9DED040B51EC100B39
:1013400010F07AFB41EC1A0B53EC1C2B85ED02AB31
:1013500051EC190B10F070FB41EC190B85ED049B5F
:1013600094ED100B53EC102B10F090FD94ED0E0B40
:1013700041EC1B0B53EC102B51EC1A0B10F086FDBB
:1013800094ED0C0B41EC1C0B53EC102B51EC180B97
:1013900010F07CFD53EC1C2B10F09AFA53EC1B2B35
:1013A00010F096FA1FED6D1B53EC112B10F06EFD33
:1013B00094ED061B94ED000B41EC1B0B53EC112B31
:1013C00051EC100B10F084FA94ED0A1B53EC112B26
:1013D00010F07EFA53EC1B2B10F064FF94ED301BE1
:1013E00053EC112B10F028FB41EC1B0B53EC192B89
:1013F00051EC190B10F04AFD41EC190B53EC1A2B70
:1014000051EC1A0B10F042FD41EC1A0B53EC182B67
:1014100051EC180B10F03AFD53EC1A2B10F058FA5F
:1014200053EC192B10F054FA53EC1B2B10F050FA1C
:1014300041EC100B08F016FF8BED000B012013B0F0
:10144000BDEC108BBDE8F08F0020F8E72DE9F04FE0
:101450000D462DED108B04468BB091ED00AB53EC97
:101460001A2B51EC1A0B10F011FD94ED0CCB53EC30
:101470001C2B10F00BFD53EC1C2B10F007FD94ED12
:1014800030FB41EC180B53EC1A2B51EC1F0B10F0F6
:10149000FDFC8B464BEC100B074653EC1A2B51EC22
:1014A000100B10F0F3FC94ED00EB53EC1E2B10F03E
:1014B000EDFC53EC182B10F0F5FE41EC190B53EC3E
:1014C0001E2B51EC1A0B10F0E1FC53EC1C2B10F00E
:1014D000DDFC4BEC107B94ED121B41EC180B53EC34
:1014E000112B51EC100B10F0D1FC53EC192B10F018
:1014F00001FE53EC182B10F0EBF941EC1B0B1FED28
:10150000C30B51EC1A0B53EC102B10F0BFFC8946A7
:1015100049EC100B95ED029B064653EC192B51EC50
:10152000100B10F0B3FC53EC1C2B10F0AFFC94ED3F
:101530000EDB53EC1D2B10F0A9FC41EC180B1FED3A
:10154000D30B51EC1F0B53EC102B10F09FFC824679
:1015500053EC1A2B069110F099FC53EC192B10F058
:1015600095FC94ED021B53EC112B10F08FFC53EC07
:101570001B2B10F0ADF953EC182B10F093FE41EC3F
:10158000180B53EC1C2B51EC1A0B10F07FFC049140
:1015900094ED06BB804653EC1B2B10F077FC41EC1E
:1015A000110B4BEC107B8DED001B94ED141B51ECDB
:1015B000100B53EC112B10F069FC53EC182B10F0AE
:1015C00099FD9DED001B53EC112B10F081F941ECBE
:1015D000110B49EC106B8DED001B95ED048B51EC5C
:1015E000100B53EC182B10F051FC53EC1C2B10F08B
:1015F0004DFC94ED10CB53EC1C2B10F047FC41EC50
:10160000110B53EC1A2B8DED021B069941EC10AB1C
:1016100051EC100B10F03AFC53EC182B10F036FC88
:1016200094ED041B53EC112B10F030FC9DED001BCE
:1016300053EC112B10F04CF99DED021B53EC112BC8
:1016400010F030FE41EC100B8DED000B049994ED81
:101650000AAB41EC108B53EC1A2B51EC100B10F031
:1016600015FC41EC110B4BEC107B8DED021B94ED46
:10167000161B51EC100B53EC112B10F007FC9DEDD9
:10168000001B53EC112B10F035FD9DED021B53ECAC
:10169000112B10F01DF941EC110B8DED001B9FED8E
:1016A000FE0B51EC1E0B53EC102B10F0EFFB53EC28
:1016B0001E2B10F0EBFB41EC110B8DED021B9FED8F
:1016C000F60B51EC1F0B53EC102B10F0DFFB0591C8
:1016D00094ED241B814653EC112B10F0D7FB9DEDAC
:1016E000001B53EC112B10F0F3F89DED021B53EC93
:1016F000112B10F0D7FD41EC110B53EC1E2B8DED8F
:10170000001B51EC190B10F0C1FB53EC1D2B10F01A
:10171000BDFB41EC110B53EC192B8DED081B51EC6B
:101720001F0B10F0B3FB039194ED181B064653EC0E
:10173000112B10F0ABFB9DED001B53EC112B10F0A7
:10174000D9FC9DED081B53EC112B10F0C1F841ECB6
:10175000110B8DED001B9FEDD20B51EC1E0B53ECCA
:10176000102B10F093FB8B464BEC100B054653EC03
:101770001B2B51EC100B10F089FB41EC110B8DED84
:10178000081B9FEDC70B51EC1F0B53EC102B10F0F7
:101790007DFB049194ED2A1B804653EC112B10F035
:1017A00075FB9DED001B53EC112B10F091F89DED96
:1017B000081B53EC112B10F075FD41EC110B53EC91
:1017C0001E2B8DED001B51EC180B10F05FFB53EC42
:1017D0001C2B10F05BFB41EC1E0B53EC182B51EC57
:1017E0001F0B10F053FB029194ED1E1B074653ECA8
:1017F000112B10F04BFB9DED001B53EC112B10F047
:1018000079FC53EC1E2B10F063F84BEC105B41ECB1
:101810001F0B53EC1A2B51EC100B10F037FB41EC63
:101820001E0B049994ED2C1B41EC108B53EC112BE7
:1018300051EC100B10F02AFB53EC1F2B10F048F862
:1018400053EC1E2B10F02EFD41EC1F0B53EC192B0B
:1018500051EC190B10F01AFB53EC1D2B10F016FB7A
:1018600053EC1D2B10F012FB41EC1E0B039953ECB3
:10187000192B41EC106B51EC100B10F007FB53ECE3
:101880001B2B10F003FB53EC1F2B10F021F853EC33
:101890001E2B10F007FD41EC1F0B53EC1B2B51ECE2
:1018A000190B10F0F3FA53EC1D2B10F0EFFA41EC8A
:1018B0001E0B039994ED1A1B41EC106B53EC112B8A
:1018C00051EC100B10F0E2FA53EC1F2B10F012FC4D
:1018D00053EC1E2B0FF0FCFF41EC1F0B9FED720B26
:1018E00051EC190B53EC102B10F0D0FA53EC182BD1
:1018F00010F0CCFA53EC1D2B10F0C8FA53EC1C2B53
:1019000010F0C4FA41EC1E0B069953EC192B41EC74
:1019100010AB51EC100B10F0B9FA53EC182B10F07F
:10192000B5FA94ED081B53EC112B10F0AFFA53EC01
:101930001F2B0FF0CDFF53EC1E2B10F0B3FC41EC2E
:101940001E0B53EC1D2B51EC190B10F09FFA53ECAE
:101950001A2B10F09BFA41EC190B039994ED1C1B08
:1019600041EC106B53EC112B51EC100B10F08EFA74
:1019700053EC1E2B10F0BEFB53EC192B0FF0A8FFFD
:1019800041EC1D0B9FED44EB51EC1B0B53EC1E2B5C
:1019900010F07CFA53EC1B2B10F078FA41EC190B89
:1019A000059994ED261B41EC109B53EC112B51EC47
:1019B000100B10F06BFA53EC1D2B0FF089FF53EC5A
:1019C000192B10F06FFC41EC1D0B53EC1B2B51EC51
:1019D000180B10F05BFA53EC1C2B10F057FA41EC8B
:1019E000190B029994ED201B41EC107B53EC112B49
:1019F00051EC100B10F04AFA53EC1D2B10F07AFB4F
:101A000053EC192B0FF064FF9FED250B41EC190BE4
:101A100053EC102B51EC1B0B10F038FA53EC1A2B33
:101A200010F034FA41EC1B0B049994ED2E1B41ECA1
:101A3000108B53EC112B51EC100B10F027FA53ECD8
:101A4000192B0FF045FF53EC1B2B10F02BFC41EC36
:101A50001B0B53EC182B51EC180B10F017FA53EC2E
:101A60001C2B10F013FA53EC1C2B10F00FFA41EC66
:101A7000190B029953EC182B41EC107B51EC100B15
:101A800010F004FA53EC1A2B10F000FA53EC1B2B55
:101A90000FF01EFF0CE00000000000000000D03F2F
:101AA000000000000000E03F0000000000000040D7
:101AB00053EC192B10F0F6FB41EC190B53EC1A2BDD
:101AC00051EC180B10F0E2F953EC1C2B10F0DEF97E
:101AD00041EC180B029994ED221B41EC107B53EC66
:101AE000112B51EC100B10F0D1F953EC192B10F015
:101AF00001FB53EC182B0FF0EBFE41EC180B53ECF1
:101B00001E2B51EC1A0B10F0C1F953EC1A2B10F0EC
:101B1000BDF941EC190B059994ED281B41EC109B84
:101B200053EC112B51EC100B10F0B0F953EC182BB7
:101B30000FF0CEFE53EC192B10F0B4FB41EC100B60
:101B40000BB07DE430B50446B0F88C0089B00004D9
:101B50000690B4F88E000D4600040790B4F890008B
:101B600088340004089002A80BF02CFA0299069819
:101B70002B46401A06900399079806AA401A079028
:101B800004990898401A08902088616A80B20BF086
:101B9000C5F809B030BDF0B50D462DED048B87B00A
:101BA0006946FFF7CFFF9FEDFE8B00246F469FED48
:101BB000FE9A03AE57F8240000EE100A06EB8400EC
:101BC000B8EEC00A20EE090A80ED000A20EE000AF5
:101BD00010EE100A10F050FC53EC182B0FF078FEAA
:101BE00041EC180B641C032CE4DBB0EE480AF0EE69
:101BF000680A08F037FBB0EE408AF0EE608A0024F5
:101C000056F8240010F038FC53EC182B0FF014FF9A
:101C10000FF02CFE00EE100A05EB8400641CD0EDE2
:101C2000000A032C30EE200A80ED000AE8DB686D24
:101C3000401C68650BF030FCE86707B0BDEC048B16
:101C4000F0BD2DE9F04104460BF058FA40BB0BF013
:101C5000E5F9042824D0D54920460E46FFF79BFF1E
:101C6000D34DD5E95C01814205DB304603F0E5FB4D
:101C70000020C5F87401208E4FF00406C00515D56C
:101C800004F118000BF02EFA8009B0F5C87F0AD2D3
:101C9000D5F8B800002850DD401EC5F8B8004AE06D
:101CA0000120BDE8F081C5F8B86044E0D4F8A01088
:101CB000D5F81401081A01D4034600E04342BB4A98
:101CC0004FF4A02C583A634505DDD4E92903536548
:101CD000C2E913102FE00312D4F8A470D5F818014C
:101CE0005B43381A01D4864601E0C0F1000EE64598
:101CF00005DDD4F8A800D164C2E914701BE000121D
:101D000000FB0033D4F8A800D5F81C11401A01D408
:101D1000014600E0414261450DDC001200FB00304D
:101D2000B0F5403FB4DBA034C5F8B86094E80B00D0
:101D30004C3282E80B000020B3E70220B1E72DE926
:101D4000F04F9B4C2DED028B93B0D4F8A81090ED82
:101D5000000B04EBC10181ED000BD4F8A810491C65
:101D6000C4F8A81090ED020B04EBC10181ED000B4B
:101D7000D4F8A810491CC4F8A81090ED040B04EB8B
:101D8000C10080ED000BD4F8A800401CC4F8A800E6
:101D9000152802DB0020C4F8A800182284490CA8EA
:101DA00004F0B3F81822824904A804F0AEF8012622
:101DB0000DF1300A0DF1100BA146002406EB460888
:101DC00008EB040109EBC1050AEBC40795ED001B04
:101DD00097ED000B53EC112B51EC100B10F054F954
:101DE00003D295ED000B87ED000B0BEBC40795EDCF
:101DF000001B97ED000B53EC112B51EC100B10F066
:101E000009F803D295ED000B87ED000B641C032C41
:101E1000D6DB761C072ED0DB9DED0C1B9DED040B55
:101E200053EC112B51EC100B10F03CFA9DED0E1BF6
:101E30009DED060B41EC180B53EC112B51EC100BE4
:101E400010F030FA53EC182B0FF0E4FF0BD39DED9C
:101E50000E1B9DED060B53EC112B51EC100B10F0EB
:101E600021FA41EC180B9DED101B9DED080B53EC76
:101E7000112B51EC100B10F015FA53EC182B0FF03E
:101E8000C9FF0BD39DED101B9DED080B53EC112BDF
:101E900051EC100B10F006FA41EC180B13B0B0EE39
:101EA000480AF0EE680ABDEC028BBDE8F08F10B571
:101EB00004462DED068B9CB0002155200E91CDE9F6
:101EC0000F1011909FED3B8B0AA80BF049F812A957
:101ED0000AA80BF0C9FB16AA0EA912A80BF0E7FB83
:101EE0006A460AA916A80BF0E2FB0198B2EE059A21
:101EF00000F5967001900298B0EE490A00F59670D0
:101F00000290039800F596700390FEF78BFBBDEEF0
:101F1000C00A019910EE100AB0EE490A0844019077
:101F2000FEF780FBBDEEC00A029810EE101AB0EE6C
:101F3000490A08440290FEF775FBBDEEC00A0399FA
:101F400010EE100A08440390204601A9FEF77DFC1C
:101F500094ED300B9FED191B51EC100B53EC112B32
:101F600010F092F85DD21AAA04A92046FEF73FFEAF
:101F700060B39DED080B9FED138B51EC100B53ECF0
:101F8000182B10F08FF941EC100B53EC102B0FF0C5
:101F90007DFF41EC190B9DED060B53EC182B16E061
:101FA0000000000000000000000080377062002088
:101FB000506100200000000000408F400000000041
:101FC000000034400000000000C0724029E051ECE5
:101FD000100B10F067F941EC100B53EC102B0FF0C5
:101FE00055FF9DED040B41EC1A0B53EC182B51ECF3
:101FF000100B10F057F941EC100B53EC102B0FF0B5
:1020000045FF53EC1A2B0FF063FC53EC192B0FF028
:102010005FFC41EC100B08F025F9B0EE408AF0EEC1
:10202000608A9FEDFD0B51EC180B53EC102B0FF059
:1020300003FD1CB041EC100BBDEC068B10BD10B5C0
:10204000E821F74803F0FAFFF648F74920F8BC1FEB
:102050004A0CC280C181828281834284F048E82197
:10206000E83003F0EBFFEF490020C1F8B40010BDE9
:102070002DE9F043EB4D04462DED108BC3B0006B02
:10208000C5F8A0012046FFF7DCFD00287ED1D5F879
:10209000941105F1BC08012911D1B4F98C003D90CF
:1020A000B4F98E003E90B4F990003F903DA9DC4811
:1020B000FEF7CBFB04F18C01404600F0A4FB1FEDC2
:1020C00048DB9FEDDABB9FEDDBCB9FEDDCAB9FEDFB
:1020D000DDEBD34ED5F80801E83E002802DD401EB6
:1020E000C5F8080196ED300B53EC1D2B51EC100B8D
:1020F0000FF0CAFF7DD2CA49E822E839684603F0EA
:1021000004FFC7483DA9E838FEF79FFBC44940AA31
:1021100020390F46A1F1C800FEF769FD00287BD0E9
:10212000BF483946E838FFF791F9B0EE408AF0EE43
:10213000608A95ED400B51EC180B53EC102B10F00E
:10214000B1F896ED300B41EC190B53EC1B2B51EC15
:10215000100B10F0A7F841EC100B51EC190B53ECDD
:10216000102B0FF069FC41EC100B08F07BF896ED9A
:1021700030FBB0EE409AF0EE609A53EC1B2B51EC22
:102180001F0B10F08FF853EC1F2B00E0E9E00FF06D
:102190007DFE41EC1F0B53EC1C2B51EC180B0FF088
:1021A00075FE53EC1F2B0FF047FC41EC100B08F0B1
:1021B00059F8D5F8E80010F05FF995ED381B53ECAD
:1021C000112B0FF063FE53EC192B0FF023FE03D3FA
:1021D000D5F80801002826DD9148E8226946E8384C
:1021E00003F093FED5F8E80010F046F995ED381BA2
:1021F00001E010E010E053EC112B0FF047FE53EC20
:10220000192B0FF007FE5CD24FF4FA7001F03CFE80
:102210000A20C5F8080154E08148E8226946E838F8
:1022200003F073FE4DE0D5F89801012849D1D5F8A7
:10223000B400401CC5F8B40000200BF0EBFD96ED97
:10224000320B53EC1A2B51EC100B0FF01FFE0FF05A
:1022500087FD3A9096ED340B53EC1A2B51EC100B92
:102260000FF014FE0FF07CFD3B9096ED360B53EC17
:102270001A2B51EC100B0FF009FE0FF071FD3C9082
:1022800003213AA80BF038FD96ED300B53EC1E2BD2
:1022900051EC100B0FF0F8FE11D29FED6C0A604963
:1022A000E839F0EE400A0846FEF7FFF95C48394687
:1022B000E838FFF7CBF8B0EE408AF0EE608A85EDA3
:1022C000408B208E564FC0050CD5B4F87400C00565
:1022D00008D507F1E800FFF7EAFDB0EE408AF0EE1E
:1022E000608A01E09FED4C8B97ED300B1FEDCD1B0D
:1022F00051EC100B53EC112B0FF08CFD31D34849EE
:1023000040AAC83189464648FEF771FC00287CD0B7
:10231000D4F8AC000FF053FD41EC100B53EC102B34
:102320009FED4B0B51EC100B0FF086FB41EC1F0B9C
:102330004846FFF704FDB0EE409AF0EE609A53EC89
:102340001F2B51EC190B0FF09FFE0BD29FED420B90
:1023500051EC180B53EC102B0FF05CFD02D2FFF781
:102360006EFEDBE153EC1F2B51EC190B0FF052FD0D
:1023700051D251EC180B9FED3A9B53EC192B0FF0F7
:1023800049FDF5D297ED300B9FED371B51EC100B4B
:1023900053EC112B0FF078FEEAD296ED300B53EC94
:1023A0001D2B51EC100B0FF09FFC7CD149461C48B3
:1023B000FFF74CF8B0EE408AF0EE608A85ED408B76
:1023C00097ED309B53EC1B2B51EC190B0FF06AFF70
:1023D00053EC192B0FF05AFD41EC190B53EC1C2B4D
:1023E00051EC180B0FF052FD53EC192B0FF024FB9E
:1023F00041EC100B07F036FFB0EE408AF0EE608A39
:10240000D5F8E80010F038F800E088E195ED381BC9
:1024100053EC112B2CE078E1000000000000084094
:10242000805F0020506100200080FFFF000000005E
:102430000000F03F0000000000000040000000002D
:102440000000F0400000000000409F406666E63E4D
:102450009A9999999999A941000000000000F83FC4
:1024600000000000000010400000000000003E409E
:102470000FF00CFD53EC182B0FF0CCFCFFF46FAFFA
:102480009DED400B49464046FDF7C4FF02283FF44E
:1024900066AF00287ED1D5F898010128FAD1002036
:1024A0000BF0B8FC00E02FE097ED320B53EC1A2B49
:1024B00051EC100B0FF0EAFC0FF052FC3A9097ED44
:1024C000340B53EC1A2B51EC100B0FF0DFFC0FF018
:1024D00047FC3B9097ED360B53EC1A2B51EC100B4D
:1024E0000FF0D4FC0FF03CFC3C9003213AA80BF019
:1024F00003FC01200BF02CFC1920009001900290AD
:1025000068460BF01DFCF6E0D5F8B4000FF057FC60
:1025100097ED301B53EC112B0FF08EFA9FEDE71B5C
:1025200053EC112B0FF0B0FDA8D34946E548FEF758
:102530008DFF97ED30DBB0EE408AF0EE608A53EC11
:102540001B2B51EC1D0B0FF0ADFE53EC1D2B0FF0B0
:102550009DFC41EC1B0B53EC1C2B51EC180B0FF0AA
:1025600095FC53EC1B2B0FF067FA41EC100B07F0B6
:1025700079FEB0EE40BAF0EE60BAD5F8E8000FF0A0
:102580007BFF95ED381B53EC112B0FF07FFC53ECC8
:102590001B2B00E087E00FF03DFCC5D39DED400B09
:1025A00049464046FDF736FF00287CD196ED361BA4
:1025B00097ED360B53EC112B51EC100B0FF072FE14
:1025C00041EC100B53EC102B0FF060FC96ED341B1C
:1025D00097ED340B41EC1B0B53EC112B51EC100B12
:1025E0000FF060FE41EC100B53EC102B0FF04EFC83
:1025F00096ED321B97ED320B41EC1C0B53EC112B7B
:1026000051EC100B0FF04EFE41EC100B53EC102B65
:102610000FF03CFC53EC1C2B0FF05AF953EC1B2B26
:102620000FF056F941EC100B07F01CFEB0EE40BA6B
:10263000F0EE60BAD4F8AC000FF0C1FB53EC1B2BEA
:102640000FF024FC9FEDA01B53EC112B0FF01EFC90
:1026500041EC1B0B53EC192B0FF016FD1AD39FED19
:102660009C0B51EC1B0B53EC102B0FF00DFDBFF42A
:1026700076AED5F8B4000FF0A2FB97ED301B53EC0B
:10268000112B0FF0D9F99FED941B53EC112B0FF088
:10269000C1FBECD2D5F8980101287FF460AE002090
:1026A0000BF0B8FB00E039E085ED408B97ED320B85
:1026B00053EC1A2B51EC100B0FF0E8FB0FF050FB12
:1026C0003A9097ED340B53EC1A2B51EC100B0FF0A2
:1026D000DDFB0FF045FB3B9097ED360B53EC1A2BCF
:1026E00051EC100B0FF0D2FB0FF03AFB3C900321A2
:1026F0003AA80BF001FBF7EE000A9FED790A714949
:10270000A1F1E800FDF7D1FF29E697ED300B53EC7E
:102710001E2B51EC100B0FF0B7FCF5D3002043B08B
:10272000BDEC108BBDE8F08370B56E4C0546D4F857
:102730000C0110B9284600F091F8D5F8B01044F615
:10274000206081420ADAD4F8102111448142C4F891
:1027500010114FF0000005DBC4F810012846BDE859
:10276000704085E470BD04224FF4C871AFF2470099
:102770000BF086B9AFF24F000BF04ABC514810B5D0
:10278000E821E83803F05AFCFFF759FC4FF4D47104
:10279000544803F053FC534CB7EE000A04F5907014
:1027A00084ED3A0A02F095FD0A20C4F87001B2EEF9
:1027B000000A84ED570A1E209FED4B0AC4F87C01E5
:1027C00084ED620A9FED490A84ED610A9FED480A93
:1027D000002084ED630A10BD10B5FFF7CFFF00287D
:1027E00005D1AFF27D00BDE810400BF0D1B910BDAE
:1027F00010B5AFF2CB000BF00BFCAFF29500BDE8CB
:1028000010400BF02BBC30B50022C2EBC20331F9F3
:10281000124030F91350AC420ADD02EB42040D883D
:1028200020F8245000EB84044D8865808D88A580B5
:1028300000EB430331F91240B3F906309C4209DA48
:1028400002EB420300EB83030C88DC804C881C8184
:102850008C885C81521C032AD7DB30BD70B5214DBA
:10286000D0F8AC200446EAB1D3170020192103F0B8
:10287000FEF845F8AC0F54F8AC2F0020D317052113
:1028800003F0F5F8686022680020D317962103F062
:10289000EEF80FF094FAC5E90D01AC3D0120C5F842
:1028A0000C0170BD6FF00040C5F8AC009FED110B3E
:1028B000C5F8B00085ED380BF0E700000AD7A3702B
:1028C0003D0AE73F805F0020000000000000103E4E
:1028D0000000000000000440333333333333C33F80
:1028E0000000000050610020CDCCCC3E3333333F9C
:1028F0009A99193F0000C0FFFFFFDF4110B5FF4963
:10290000C4074FF040434FF0804205D08B66CB6642
:10291000C1E91C328A67CA67840709D5C1F800314A
:10292000C1F80431C1E94232C1F81021C1F81421C3
:10293000400709D5C1F89831C1F89C31C1E9683226
:10294000C1F8A821C1F8AC2110BD2DE9F14F00203C
:1029500082B0824681460298806F00287ED0002295
:102960000020401C0428FCDB029800EBC203D3E9E2
:102970000010A1FB0167D3E9065400FB017701FBBE
:102980000077AB46AD1BCDE900670326A5FB06C863
:10299000A64664EB070404FB0684002705FB0745F5
:1029A000DDE900671CEB06047D41A4FB016705FB24
:1029B000017504FB0055D3E90C47341B65EB070593
:1029C000CDE900455D46A5FB05670324A6FB045839
:1029D0000EFB0B770BFB0E7707FB04844FF0000C0C
:1029E00006FB0C44D3E91263761B63EB04034C181B
:1029F000A4FB017C40EB000505FB01C504FB005571
:102A0000A7FB014C05FB01C507FB0055A4FB017C9E
:102A100005FB01C504FB0054F6196341DDE90045DF
:102A2000AD0045EA9475A400A4FB017C05FB01C13F
:102A300004FB0014F01B73EB040103D50023404298
:102A400063EB0101BAEB000479EB010301DA824682
:102A50008946521C032A83DB504600E016E04946B3
:102A60000FF038FD00EE900AA54890ED0E1A80EEAA
:102A7000810A10EE100A0FF0ABFDA04AD2F80C222A
:102A800003B09200BDE8F04F02F0DEBF002003B0BB
:102A90000146BDE8F08F2DE9F14F0020009A014674
:102AA000926FE2B300240022521C042AFCDB009A3D
:102AB00002EBC405AA46D5E90029A2FB023CD5E9F0
:102AC00006769E46FB1A0325A3FB057809FB02CC7C
:102AD00002FB09CB66EB0B0606FB05854FF0000CED
:102AE00003FB0C5617EB0E03A3FB027C46EB0B0615
:102AF00006FB02C203FB0923DAE90C25BA1AAB4133
:102B000003D50025524265EB0303851A71EB0305DB
:102B100001DA10461946641C032CC4DB00E015E002
:102B20000FF0D8FC00EE900A754890ED0E1A80EE7A
:102B3000810A10EE100A0FF04BFD704AD2F80C22F9
:102B4000BDE8F84F02EB420202F07EBF00200146D2
:102B5000BDE8F88F2DE9FE43684D80460024D5F886
:102B600010626F4605EBC4013246D1E9020102F062
:102B700058FF05EB8401B1F884100904401847F8A8
:102B8000240004F10104032CECDB5C48982108309C
:102B900003F054FA0120FFF7B1FE95F8E80101991E
:102BA000042807D1D5F81802B0F5201F02DD052052
:102BB00085F8E801524C0098636AC11A01D40E46A8
:102BC00000E01E1A0198A26A801A01D4074601E0AB
:102BD000019FD71BBE4206DD002901D4084606E04E
:102BE0000098181A03E0002801D50198101A029ADB
:102BF000E16A521A01D4134601E0029BCB1A8342C8
:102C000005DB002A01D4104601E00298081AD8F822
:102C100024100AF0F0FCD5F81812814206DD0321D9
:102C200068460BF03DF902200BF08CF900986062C9
:102C30000198A0620298E062BDE8FE83304AC2E9D2
:102C4000020170472E4AC2E9060170472C4AC2E9C8
:102C500004017047294AD2F8E0310360D2E97402D6
:102C6000C1E900027047254AD2F8E0310360D2E999
:102C70007602C1E9000270472DE9FE478146002037
:102C8000EA468A6F22B901EB800339F91020DA672E
:102C900001EB800239F91030D46F1D1B4AF8205027
:102CA000136E9D4200DD1566D36E9D4200DAD56637
:102CB0000123002422464FEAE578A3FB056704FBC5
:102CC000057403FB0844334602EB420601EBC606DB
:102CD00006EBC00CDCE90076FF186641CCE9007613
:102CE000521C042AE9DB401C0328CADB886F401C05
:102CF00088670120C1F89000BDE8FE87F8620020D7
:102D00005865002030B5002302EB830550F82340BE
:102D10005B1CEC66032BF7DBC2F88810916F79B16E
:102D2000002102EB810450F82130E56F5B1B00D5D8
:102D30005B42256E9D4200DA2366491C0329F0DBC5
:102D4000906F401C90670120C2F8900030BD10B514
:102D500000210B4600EB8102491CD46ED467136638
:102D60000329F7DBD0F8881040F8783FC0E9051355
:102D700010BDD0E92210081A70470146D1E91802A7
:102D8000824200DB1046896E814200DB08467047B4
:102D90002DE9F0478046501E012686408946C2F143
:102DA0002007404602F050FE04460D464046494684
:102DB0003A4602F036FE3A4602F046FEB04203DDE5
:102DC000641C45F1000505E07142884202DA641E88
:102DD00045F1FF3520462946BDE8F087F749002038
:102DE000086248628862C862086448648864C8648B
:102DF000086348638863C863086548658865C86573
:102E0000704730B5EE4AD2F8483223B1D2E9905437
:102E10002D1A8C4101DAC2E990015B1CC2F84832DC
:102E200030BD30B5E64AD2F8583223B1D2E99454D5
:102E30002D1A8C4101DAC2E994015B1CC2F85832A8
:102E400030BD30B5DE4AD2F828322BB1D2E9884500
:102E5000041B71EB050401DAC2E988015B1CC2F8AE
:102E6000283230BD30B5D64AD2F838322BB1D2E94B
:102E70008C45041B71EB050401DAC2E98C015B1C73
:102E8000C2F8383230BD2DE9F0470246CC48012562
:102E900008308046C36E016E046FC91A436E1B1B57
:102EA0008B4200DB1946836ED8F87400181A8842EA
:102EB00000DB0146C14F6037F86B884204DA00241A
:102EC00000F010FA204687E7108E0124BC4EC005A2
:102ED0004FF000010ED5D6F880303068834209DB10
:102EE000B2F87420D20506D5D6F8B021824201DBB3
:102EF000052400E00C4674B3600719D5AF48C83804
:102F00008146FFF722FD000D40EA01300915C6E9B0
:102F10007601D7E904321B1A8A4102DA0025FFF74D
:102F2000A1FF9821484603F089F80420FFF7E6FC4A
:102F3000E0070ED04046FFF708FDC6E97C01D7E95F
:102F400006340246181A8C4103DA00251046FFF7B2
:102F500078FF284640E7FFE702203DE71EB504461C
:102F600090F83000C0F38110032804D19449201D4B
:102F70000831FFF781FE94F87400C0F38110032834
:102F800005D18E4904F14800C839FFF775FED4F821
:102F9000B8008B4AC0F38113A0326946032B0FD0CF
:102FA000C0F3411003281AD1002004EB8003D3F8AA
:102FB000A0309B1341F82030401C0328F5DB09E0CA
:102FC000002004EB4003B3F98C3041F82030401C62
:102FD0000328F6DB6846D4F8C010FFF793FE1EBD49
:102FE0002DE9F04705460020296BCA056AD501F096
:102FF0005001402900D1012095F8741001F05001D2
:10300000402900D1012095F8B8106D4C01F0500115
:10301000402900D030B100F065F90020C4F8E0018B
:1030200084F8E801654ED4F80812E86A60368142F7
:1030300028D0C4F808020A28306B0CDA400020605F
:10304000716B00EE100A491CC4F80C12B8EEC00AED
:1030500007F045F905E02060706BC4F80C0296EDAE
:103060000E0A84ED850AD4F80C02C0F11000C4F8F1
:1030700010024FF48040C4F8180296F8341019205A
:103080008840F0632846FFF769FF94F8E811DFF8FD
:10309000309105274FF0020809F1A009072911D244
:1030A000DFE801F0041127305E7E8500D4F8E001EE
:1030B000411CC4F8E0110A2804DB00F013F90120D8
:1030C00084F8E80186E0D4F89800012810D1284659
:1030D000FFF7D9FE10B1012803D004E084F8E871AD
:1030E00001E084F8E8814846FFF731FEFFF776FEFD
:1030F00070E0032084F8E8012846FFF72BFD00F07C
:10310000F1F867E02846FFF7BEFEE8B3012861D179
:10311000B5F8B8004FF00403C00515D54846FFF7D1
:103120002CFE0146C017C4E97410D6E902C2BCEBFC
:103130000101824102DA84F8E87108E04846FFF7AD
:1031400018FE316A884202D384F8E83124E0F4E9B9
:103150007601FFF766FED4E90601FFF752FE39E07B
:10316000B5F8B800C0050BD54846FFF706FE014686
:10317000C017C4E97410D6E90232591A824108DB3B
:103180002846FFF780FE00E003E010B1012803D0DD
:1031900020E084F8E8711DE02846FFF7DBFCD6E765
:1031A000062084F8E80101200AF0CCFE0DE0284654
:1031B000FFF769FE012805D038B10BE0F864002064
:1031C000F862002084F8E88104E000F08BF84846BB
:1031D000FFF7BDFD0020FFE510B5002140100028DD
:1031E00002D001F10101F9DC4FF0010001F1010110
:1031F00000FA01F0434C00EE100AC4E90C01B8EEED
:10320000C00A07F06CF884ED0E0A94F83410192007
:103210008840E06310BD10B54FF418713A4802F0D1
:103220000DFF4021374802F009FF0720FFF766FB3A
:10323000344840F2DC510022C0E906121421C0E9F2
:1032400002124FF41671C0E9041230492E4C01628B
:103250000120C4F8E4011920FFF7BEFF0020C4F8E4
:10326000080210BD10B54FF41871274802F0E6FEB1
:103270000720FFF743FB244801210022C0F8E41196
:1032800080F8E811032101200AF052FE0722642190
:10329000AFF2B320BDE810400AF0F2BB10B5012038
:1032A0000AF050FEAFF2C720BDE810400AF0B0BEF1
:1032B00010B5FFF7B0FF002805D1AFF25700BDE809
:1032C00010400AF065BC10BD10B5FFF7E7FFAFF284
:1032D0006B00BDE810400AF0C1BE0B49D1E97C018A
:1032E00070477047084810B59821083002F0A6FED4
:1032F0009821074802F0A2FEBDE810400520FFF724
:10330000FDBA000058650020F86200200008AF2FC9
:1033100030640020F0B516462DED028B85B01F46B7
:103320000C4605463C22FE49A1F10C0002F01FFEAE
:10333000FB4950224C31A1F1100002F018FEF8496F
:1033400096E80D000C3901F13C0C8CE80D005CCCCA
:1033500001F1980080E85C009FEDF28AD1F8240129
:10336000401CC1F82401062802DD0620C1F8240112
:10337000C0F106060C46A0351AE004EB06116A46B9
:10338000384648310AF093F906EB460004EB800119
:103390006A46284609F06CFCF0EEC00AB0EEC81A86
:1033A000F4EEC10AF1EE10FA01D2B0EE408A761CBA
:1033B000062EE2DB05B0B0EE480ABDEC028BF0BD94
:1033C00070B514462DED048B0E46B0EE408A0025F4
:1033D0009FEDD59A416BF0EE498A002904DBD0F8C5
:1033E000BC00032800D10125CD492422B431081F97
:1033F00002F0BDFDCA480C38002380ED388A00EB8E
:1034000083015B1C91ED2F0A0A2B70EE288AF6DBF4
:10341000B2EE040AC822C8EE800AC0ED390A9FED58
:10342000C31A322E1DDB9FEDC20AC0F81C21B6F56F
:103430007A7FC8EE001A00EE104AB8EEC00A61EEBC
:10344000801A81EE810A2FDB9FEDBA0AC8EE001ABE
:1034500000EE104AB8EEC00A61EE801A81EE810AD1
:1034600022E041F2883194FBF1F14942D0F81C315D
:1034700001EB8101C918C0F81C1102D50021C0F868
:103480001C119FEDAD0AC8EE001A00EE104AB8EE0E
:10349000C00A61EE801A81EE810A29B9D0F828119C
:1034A000012901D1B0EE490AD0F8201109B1B0EEDE
:1034B000480AA2498C4201D1B0EE480AB5EEC00AD2
:1034C000F1EE10FA01D0C0ED3A0A90ED3A1A9C4B99
:1034D00071EE600AF0EEE00A10EE901A994227DDD4
:1034E000D0ED2E0AF5EEC00AF1EE10FA20D1002D33
:1034F0001ED0C0F81C2120460EF061FC41EC190BD7
:1035000018EE100A0EF0B8FF9FED8E1B53EC112B36
:103510000EF092FA53EC192B0EF0B8FC9FED8B1BBA
:1035200053EC112B0EF088FA0EF0A0F900EE100A01
:10353000BDEC048B70BD2DE9F04F04462DED048BDE
:10354000A9B09FED799A4FF0000A754ECDF810A002
:103550000C3ECDF814A0CDF818A0D6F8201102200A
:1035600003297DD000209FED7B8A20AD06EB8001F2
:1035700091ED2A0A05EB8001401CB8EEC00A042830
:1035800020EE080A81ED000AF0DB0FA809F0E8FC44
:1035900024A809F049FD624B24AA9C330FA92046B8
:1035A0002793FFF7B7FEF0EE408A04F1180009F008
:1035B00099FD81096148D6F83021824200DB02463C
:1035C000B0EE680A2046FFF7FBFED6ED3B0AB34695
:1035D0000BA820EE200A86ED2E0A09F0C1FC13A9E3
:1035E0000BA80AF0DFF94E480FAAF0300BA90646E7
:1035F0000AF05DF831460BA80AF036F800210DF10B
:103600003C080DF14C090DF1100E00221346104636
:1036100001EB410C0CEB000759F8276008EB800721
:10362000401C7F680328C6FB0723F3DB900F40EAAA
:1036300083004EF82100491C0329E6DBDBF820015A
:103640005E4600286AD05046CDF818A0404200EEF1
:10365000100AB8EEC00A20EE080A06F0A5FA00E04B
:10366000A2E08DED000A8DED019A8DED029A06988B
:10367000404200EE100AB8EEC00A20EE080A06F03A
:1036800029FD8DED030A9DED060ADFED330AD6F81C
:103690003001B8EEC00A41F2883190FBF1F080EEC3
:1036A000201A00EE100AF8EEC01A81EE210AB0EEE0
:1036B000001AC0EE011ABDEEE10A10EE101A490020
:1036C00000EE101A0691B8EEC00A60EE200A00EE75
:1036D000100AB8EEC00A20EE800ABDEEC00A8DEDD9
:1036E000060AB8EEC00A20EE080A06F05DFA8DED73
:1036F000070A8DED089A8DED099A9DED060AB8EE40
:10370000C00A20EE080A06F0E5FC8DED0A0A1CAAA4
:10371000694620A80AF023F86A461FE04BE0000043
:10372000A4650020002474490000000000409C456E
:1037300000004843000048420000C84340420F00D8
:103740000E2DB23D00000000000079400000000096
:103750000088B34000008030E102374707A91CA869
:1037600009F0FDFF6F46DFED958AD4F8BC00002814
:1037700013DD002007EB800191ED000A05EB8001CD
:1037800081ED000A20EE280A06EB8001401C042887
:10379000BDEEC00A81ED2A0AECDBD4F8BC00F6EEDF
:1037A000009A03280CD108E0C6F8200129B0BDEC2E
:1037B000048BBDE8F08F069848E700F03DFEE0B3CB
:1037C00096ED2A0AB8EEC00A20EE080A8DED1C0A12
:1037D00096ED2B0AB8EEC00A20EE080A8DED1D0A00
:1037E00096ED2C0AB8EEC00A20EE080A8DED1E0AEE
:1037F00096ED2D0AB8EEC00A20EE080A8DED1F0ADC
:10380000D6F820010028D1D096ED2E0A20EE290A04
:1038100006F0CAF920EE280ABDEEC00A86ED2A0A93
:10382000C6F8ACA0C6F8B0A096ED2E0A20EE290A84
:1038300006F050FC20EE280A00E004E0BDEEC00ACD
:1038400086ED2D0A2BE096ED2E0A20EE290A06F0D1
:10385000ABF98DED070A8DED089A8DED099A96ED7D
:103860002E0A20EE290A06F035FC8DED0A0A6A467A
:1038700007A920A809F073FF68460AF01BF800208A
:1038800007EB800191ED000A06EB8001401C20EE61
:10389000280A0428BDEEC00A81ED2A0AF0DBD4F81C
:1038A000C01027980AF05AFAD6F820010028AAD0AA
:1038B000401E79E770B590F8B810414ACC064FF039
:1038C00000034FF0030101D4C2E94813B0F82041CE
:1038D000E40509D4048EE40503D5B0F87440E4058A
:1038E00002D4C2E948131AE0D2F8341139B1D0E950
:1038F0003013C91A4FF47A73B1FBF3F105E0D0F835
:10390000B01044F62064A14202DBC2F830110AE094
:10391000D2F82C512944C2F82C11A14201DA00201E
:1039200070BDC2E94B31FFF706FEF8E710B54FF462
:103930009C71234802F082FB214C4FF08040002113
:10394000C4F8FC0044F8A80F1D48A8300AF006FA95
:103950004FF47A70B7EE000A606784ED110A10BD6B
:10396000174880ED3B0A002070471549C1F828012F
:10397000002070471249C1F834010020704704222A
:103980004FF41671AFF2D3000AF07AB8AFF2DB0051
:103990000AF03EBB10B5FFF7C9FF09490020C1F886
:1039A0002801C1F83401AFF22900BDE810400AF047
:1039B000EFB8AFF235000AF051BB00000000804EB6
:1039C000986500201FB501461022684602F058FA9B
:1039D000F7489DE80E0080E80E00F6499DF80C00BF
:1039E00081F8B001002004B010BD1FB5F0490EC928
:1039F0008DE80E00EF49102291F8B0118DF80C10EF
:103A0000694602F03DFA0020EDE72DE9F04F91B054
:103A100000251821684602F011FB0024182106A891
:103A200002F00CFBE348A046C14690F8C011012902
:103A30007ED1D0F8B8B1D0F8B4A10022C2EBC20058
:103A400000EB4001DB4800EB810E9EF850000F9028
:103A5000002864D000215FE0DDE900076D1C5EF8FE
:103A600021300E93181847EBE376CDE900060EEBF4
:103A70008100EDB243690D93DDE9027C4FEAE37604
:103A8000DB1946EB0C06CDE90236836ADDE9047CDE
:103A9000DE170C93DB1946EB0C06CDE90436C06B40
:103AA0000E9BDDE9067C83FB0063360C46EA034689
:103AB000F6194CEB2343CDE906630D9BDDE9087C49
:103AC00083FB00634FEA164646EA0346F6194CEBC1
:103AD0002343CDE908630C9BDDE90A7C83FB00638B
:103AE0004FEA164646EA0346F6194CEB2343CDE966
:103AF0000A6380FB00634FEA164646EA034616EB6C
:103B0000080849EB23490444584501DA834602E09A
:103B1000504500DD8246491C0F9888429CDC521CAF
:103B2000052A8BDBA348AAEB0B01D0F8BC0100E00F
:103B300056E0814254DBA5FB0823E01700261090D5
:103B400006FB083005FB0900CDE90C2084FB0420AE
:103B5000110C41EA00410014CDE90E0106A800EB6A
:103B6000C601D1E90003A0FB05B203FB0522002139
:103B700000FB012C684600EBC601D1E90001A0FB67
:103B8000043701FB0471109A00FB0210190C41EA82
:103B900000490CAA4FEA204A92E889000F9983EA6B
:103BA000070880EA010252EA080212D0421A63EBC7
:103BB0000703BBEB09006CEB0A0C4FEA0C4141EA2E
:103BC0001041000401F053FF7A4901EB8601C1F86E
:103BD000A401761C032EC1DB7648012180F8B011C8
:103BE00011B00020BDE8F08FF8B5724D0E460446C6
:103BF000D5E96D01091A052291FBF2F1301A90FB0B
:103C0000F1F0C0B28DF80000042801D92020F8BDE1
:103C1000C0EBC00000EB400005EB800191F85000C4
:103C2000052816D0421C81F850209DF80010C1EBE9
:103C3000C10101EB410105EB810202EB8001CE6382
:103C4000236842F8203060684861A06888620020DC
:103C5000F8BD01F14003181F1022194602F087F940
:103C60009DF800001022C0EBC00000EB400005EB07
:103C70008000011D02F07BF99DF800001022C0EBCE
:103C8000C00000EB400005EB800000F1180114308B
:103C900002F06DF99DF800001022C0EBC00000EBAF
:103CA000400005EB800000F12C01283002F05FF9A4
:103CB0000420BAE730B585B0044603A9684609F088
:103CC000EBF904A809F09AFA02282BD0D4F8E40002
:103CD0000399401A374991F8B02112B308B3D1F8CB
:103CE000A421009C80FB0232150445EA13422244C1
:103CF0000092D1F8A821019C80FB0232150445EA0C
:103D0000134222440192D1F8AC11029A80FB0110B7
:103D1000030443EA114010440290032168460AF06C
:103D2000BFF80CE0606B032809D109F0C7F930B186
:103D300068460399FFF758FF08B9FFF766FE05B01C
:103D4000002030BD10B54FF4E2711A4802F076F948
:103D500018481949C0F8B4114FF4AA01C0F8B811B5
:103D60004FF4A021C0F8BC11012180F8C01100203F
:103D700010BD1049C1F8B801002070470D49C1F8C5
:103D8000B401002070470B49C1F8BC010020704706
:103D900058B10849D1F8A4210260D1F8A8214260A5
:103DA000D1F8AC11816000207047052070470000F9
:103DB00074680020D06600200000D8FF2420F5E7BA
:103DC00020B12D4981F8C0010020EFE72420EDE764
:103DD000294B93F8B1010028E8D0D3E96D10401ABF
:103DE000052190FBF1F00020C0EBC00101EB410187
:103DF00003EB810191F8502022B1002100E0491C21
:103E00008A42FCDC401C0528EEDB0020CEE70822BD
:103E100096211A4809F034BE18480AF0F9B810B5CE
:103E2000FFF790FF4FF49A7310221549154809F0D7
:103E30007BFE20B9AFF2290009F0AAFE08B10120EB
:103E400010BD0D49012081F8B101002010BD10B551
:103E5000094C94F8B101002808D008480AF0D8F8B5
:103E6000AFF255000AF0FAF808B1012010BD0020A9
:103E700084F8B10110BD0000D0660020B53C0008F8
:103E8000EB390008C5390008002803DDFE4901228E
:103E9000C1E920020020704710B5B821FA4802F0AD
:103EA000CDF89FEDFA0AF84880ED030A9FEDF80A75
:103EB00080ED020A9FEDF70A4FF0804180ED000A85
:103EC000B3EE0E0A80ED010A41664FF4FA619FEDF0
:103ED000F20AC16780ED270A002010BD70B5EA4CD8
:103EE000002594ED001AB4EEC01AF1EE10FA17D3C3
:103EF00094ED011AB4EEC01AF1EE10FA10DC20694C
:103F0000012817D194ED030AB4EEE00AF1EE10FA9D
:103F100006D394ED020AB4EEE00AF1EE10FA09DDE0
:103F2000606F20B9D848A16D183009F017FF012043
:103F3000C4E91D05D4E91E01884204DB606F012835
:103F400000D1E565656770BD10B504462DED028BA7
:103F5000B0EE408A09F00EF8CB49002220B918EEE5
:103F6000100ACE4B984202DD0A614A6102E00869FC
:103F7000002808D1486920444861B0F5FA7F02DD85
:103F80000120C1E90402BDEC028B10BDF0B58DB07B
:103F90000D4614460646694609F004FD09AA314655
:103FA000284609F084FB2946304609F05DFB0021D4
:103FB000EC460DF1240E00231A46184601EB41078A
:103FC0003D180EEB80065CF825507668401CC5FB5A
:103FD00006320328F4DB980F40EA820044F82100FF
:103FE000491C0329E7DB0DB0F0BDA7490020C1F84B
:103FF0008C00704710B590ED000AD0ED010AB8EEC4
:10400000C00AB8EEE01AF8EEE00A20EE000A01EE6F
:10401000200AD0ED020AB8EEE01AF8EEE00A01EE4E
:10402000200A06F05CF9DFED9E0A20EE200A10BDA2
:1040300000229549012330B1012810D0C1F89830F1
:1040400041F88C2F31E081ED280A81ED290A9FED9E
:10405000950A81ED2A0AE1E924328A607047D1EDA0
:10406000280A91ED271A70EE600AF0EEE00AF4EEED
:10407000C10AF1EE10FA16D2D1F89400401CC1F832
:104080009400D1ED290A312830EE800A81ED290A09
:10409000E4DD0220DFED840AC1F8900080EE201AF2
:1040A00081ED2A1A704741F8902F4A6070472DE938
:1040B000F04798462DED088B8AB017468A4604468D
:1040C0009FED788A0025704E039504950595D6F8E6
:1040D000880000287DD008F0FDFF10B103A808F08B
:1040E000CDFFD6F880004FF00109002817DDC6F893
:1040F000849008F0EFFF48B103A808F0F3FF8009AF
:10410000B0F5C87F02D2D6F8800004E0D6F880006F
:10411000001BC6F88000002801DCC6F8845009F0B6
:10412000BBF9002855D000209FED5D9A57F820106C
:1041300000EE101A58F82010401CB8EEC00A0328F0
:1041400060EE090A00EE101AB8EEC00A20EE800AEE
:1041500000EE098AEADB3846FFF74CFFF0EE408AB2
:104160004FF07E5788EE280AF7EE00AA10EE100AEC
:10417000B84201DDB0EE6A0A10EE100ADFF82C81B9
:10418000BFEE00BA404501D9B0EE4B0A05F0F2FA95
:10419000D6F88C00B0EE40AA98B196ED000AB4EEC5
:1041A000E80AF1EE10FA0CDD96ED010AB4EEE80A29
:1041B000F1EE10FA05D2B0EE4A0AD6F89000FFF7F9
:1041C00037FF684609F004F82F490C22AC316846E5
:1041D00000E0E2E001F028FE18B9D6F898000128C6
:1041E0006BD129489DE80E00AC3080E80E000098A5
:1041F00018B9019808B90298F0B36846FFF7FAFEBB
:10420000B0EE408AB5EEC08AF1EE10FA55D0F2EE6B
:10421000049A38EE690A20EE000A06F060F886ED8E
:10422000010A38EE290A20EE000A06F058F886ED59
:10423000000A9DED020AB8EEC00A60EE090AB0EE6F
:10424000480A80EE808A18EE100AB84201DDB0EE0E
:104250006A8A18EE100A404501D9B0EE4B8AB0EEDA
:10426000480A05F087FAD6ED270A30EE600A86ED97
:10427000020AB0EE480A00E024E005F07BFAD6ED31
:10428000270A30EE200A14E0946800200000B442AF
:104290000000B4C2000070427B142E3E00401C4659
:1042A000000080370000000000004842000080BF8E
:1042B00003E086ED030AC6F88C50DFF88481F16DC7
:1042C00021B32FE01FED0D0A86ED000AB3EE0E0AB2
:1042D00086ED010AD6F89800012808D01FED140ACF
:1042E00086ED020A1FED170A86ED030AE5E796ED53
:1042F0002A0A96ED271A70EE410A30EE010AC6ED41
:10430000020A86ED030AC6F89850D6E70027C6F8D9
:104310005C9006EB07104146183008F05DFE7F1CEC
:10432000042FF6DB464906AA0C310F465046FFF72C
:104330002DFE3946504609F097F903A808F0D2FE41
:1043400000EE100ADFED3F0A2046B8EE400A20EEEC
:10435000200AFFF7F9FDF0EE4A0AB0EE680AFFF70F
:10436000BDFDD6E91E01884201DA2044B067706FB6
:1043700090B9306E20443066B0F57A7F0CDD30495C
:1043800030223039A1F11000356601F0F0FD2C48E3
:104390004146103808F020FE706F0AB0BDEC088B63
:1043A000BDE8F08770B588B0044604A808F03CFE6C
:1043B000D4E93001451A684608F0D2FD064604AB40
:1043C00004F1A00269462846FFF771FE09F0D6FC09
:1043D00008B0304670BD04224FF49671AFF23B0036
:1043E00009F04EBBAFF2430009F012BE10B5FFF763
:1043F00053FD00280DD1124800215838C0F88C1008
:104400000121C0F88810AFF23100BDE8104009F07A
:10441000BFBB10BD10B5AFF2730009F0F9FDAFF2EC
:104420007B00BDE8104009F0F3BD05490120583973
:10443000C1F88C000020704701485838406F704721
:10444000EC6800200000803CF0B51D462DED028B8D
:1044500099B090ED000AD0ED010A1746B8EEC00AF7
:10446000B8EEE01AF8EEE00A0E4620EE000A044626
:1044700001EE200AD0ED020AB8EEE01AF8EEE00AEA
:1044800001EE200A05F02BFFF0EEC00A10EE900AB4
:10449000B0F18D4F7EDDD6ED000AB8EEE01ADFED0B
:1044A000FE0A21EE201A8DED041A96ED011AB8EEDF
:1044B000C11A21EE201A8DED051A96ED021AB8EEFA
:1044C000C11A21EE201A8DED061A96ED031AB8EEE8
:1044D000C11A61EE200ACDED070A9FEDF08A10AAFD
:1044E0008DED0C8AD4ED000A0CA904A8F8EEE00AC0
:1044F00080EE801A8DED0D1AD4ED010AF8EEE00A77
:1045000080EE801A8DED0E1AD4ED020AF8EEE00A64
:1045100080EE801A8DED0F1A09F021F914A904A874
:1045200009F0AEF86A4614A910A809F018F99DED33
:10453000021ADDED010ADA4921EE010A00EEA00AB5
:1045400010EE100A884202DA9FEDD60A11E010EE52
:10455000100AD549884202DA9FEDD40A09E010EE2C
:10456000100AD349884202DAB5EE000A01E09FED55
:10457000D10A01EE907AB8EEE12ADFEDCF2A8DED77
:10458000088AC2EE221A21EE800A21EE001A8DED71
:10459000091A00E038E020EEC00A6A4604A98DED51
:1045A0000A0A8DED0B8A08A809F0D9F86A4604A911
:1045B000104609F038F8684609F03AF9DDED000ACE
:1045C0009FEDBE0A60EE800AFDEEE00AC5ED000A2E
:1045D000DDED010A60EE800AFDEEE00AC5ED010A9C
:1045E000DDED020A60EE800AFDEEE00AC5ED020A8A
:1045F000DDED030A20EE800ABDEEC00A85ED030A58
:1046000019B0BDEC028BF0BD96E80F0085E80F00F5
:10461000F6E72DE9F0410C462DED068B054690EDB1
:10462000000AD0ED010AB8EEC00AB8EEE01AF8EEC2
:10463000E00A20EE000A01EE200AD0ED020AB8EEF0
:10464000E01AF8EEE00A01EE200A05F048FE10EE4E
:10465000100A4FF07E5800264FF0804740453FDD5E
:10466000D5ED020AB7EE009AF8EEE00AC0EE808AB5
:1046700039EE680A9FED89AAB5EEC00AF1EE10FA8C
:1046800001DCB0EE4A0AF6EE009A20EE290A05F0A7
:1046900026FEB0EE408A38EE890AB5EEC00AF1EE89
:1046A00010FA01DCB0EE4A0A20EE290A05F017FEE6
:1046B000F0EE408A95ED000AB8EEC00A60EE000AFE
:1046C00095ED010AB8EEC01AB8EEC00A41EE000A34
:1046D000B0EE600A05F003FE10EE100A404503DC60
:1046E000C4E90076A66025E0DFED740A28EEA01A82
:1046F000BDEEC11A84ED001A95ED011AF8EEC11A4B
:1047000081EE801A21EE081A61EE200AFDEEE00A21
:10471000C4ED010AD5ED000AF8EEE00A80EE801A39
:1047200021EE080ADFED660A20EE200ABDEEC00A7F
:1047300084ED020AE660BDEC068BBDE8F08170B541
:1047400090ED000AD0ED010A0546B8EEC00AB8EEB9
:10475000E01AF8EEE00A0C4620EE000A01EE200A0C
:10476000D0ED020AB8EEE01AF8EEE00A01EE200AF7
:10477000D0ED030AB8EEE01AF8EEE00A01EE200AE6
:10478000B5EEC00AF1EE10FA07D84FF08040206075
:1047900000206060A060C86070BD05F0A0FDB7EEAD
:1047A000001AC1EE000A9FED450A20EE800AD5ED01
:1047B000000AF8EEE00A60EE800AFDEEE00AC4EDC1
:1047C000000AD5ED010AF8EEE00A60EE800AFDEE7F
:1047D000E00AC4ED010AD5ED020AF8EEE00A60EE47
:1047E000800AFDEEE00AC4ED020AD5ED030AF8EEF8
:1047F000E00A20EE800ABDEEC00A84ED030A70BD17
:1048000070B5044690F8300088B040067ED5A069A7
:10481000002801DB014600E041424FF480320026CF
:10482000284D91420BDAE169002900DA49429142B0
:1048300005DA216A002900DA4942914267DB002843
:1048400000DA40424FF4C80188420BDCE0690028DE
:1048500000DA4042884205DC206A002800DA404243
:10486000884201DD032000E00220A863696BA06A92
:10487000814242D0686394ED0A0A9FED131AF8EE64
:10488000C00A80EE810ADFED110A20EE200A10EE48
:10489000100A0DF0F1FD1BE0000080300000000068
:1048A00017B75139A69BC43B0AD7233C8FC2753D2D
:1048B000CDCC4C3ECDCCCC3E0014CD470000804E3C
:1048C000000080CE4C690020002474490000004E96
:1048D0009FEDFA1B53EC112B0DF0D8FA9FEDF91B4D
:1048E00053EC112B0DF0D2FA9FEDF81B53EC112B6A
:1048F0000DF0A2F80DF034FA28630496296BA06934
:1049000008F079FE0590296BE06901E022E023E0E0
:1049100008F071FE0690296B206A08F06CFE079083
:104920006A4604A9EB4808F0C2FE0098E94A8001F3
:1049300000900198694680010190029880010290E0
:10494000039880010390104608F05BFEE149084699
:10495000FFF7F5FE08B070BDAE63FBE770B5044627
:104960002DED048B8EB0D0F82001410676D5D94DBF
:10497000D4F81011D84B2A68891AD4F82C215A433C
:104980008A4201DA032100E00221A963800504F5CF
:10499000887602D5CF493046B5E0002107A808F057
:1049A0007BFBCC490C223C3107A801F03DFA20B931
:1049B000D4F82801A96D88427ED020886B4680B249
:1049C00007AA616A08F0AAF99DED000ADDED010A67
:1049D000B8EEC00AB8EEE01AF8EEE00A20EE000ADF
:1049E00001EE200ADDED020AB8EEE01AF8EEE00A68
:1049F00001EE200A05F073FCB0EE408A9FEDB70A85
:104A000068EE000A9FEDB61A80EE810ADFEDB50A66
:104A100020EE200AD4ED4A0AF8EEE00A60EE800AA1
:104A20001FED571A80EE810AF6EE000A20EE209A5A
:104A3000B0EE490A05F0B8F8F0EE408AB0EE490A47
:104A400005F048FB18EE100A4FF08041884206DA64
:104A50000020C5E912102865686532E055E05FED79
:104A6000690A68EEA00AFDEEE00AC5ED120A5FEDE4
:104A70006C0A20EE200ADDED000AF8EEE00A60EE96
:104A8000200A80EE881AFDEEC10AC5ED130ADDED9D
:104A9000010AF8EEE00A60EE200A80EE881AFDEEC8
:104AA000C10AC5ED140ADDED020AF8EEE00A20EEB7
:104AB000200AC0EE080A00E00DE0BDEEE00A85ED38
:104AC000150A07AB93E8070005F13C0383E80700EC
:104AD000D4F82801A8657F4903AA4831304608F078
:104AE000E6FD7C480AAA5C3003A9044608F0DFFD15
:104AF0002146304608F0B8FD03AA0AA9754808F017
:104B0000D6FD744903A8FFF71AFE0EB0BDEC048B66
:104B100070BD1FB5044669466E4808F0A5FD6D4A94
:104B200069462032204608F0C2FD6A491DCC10318A
:104B300081E81D001FBD2DE9F0470446654E90F841
:104B4000740006F15C0A06F12008012500F050010E
:104B5000103692B004F5887904F15C07402906D03C
:104B600094F8200100F0500040280DD01DE031469F
:104B70003846FFF74EFDB4F82001C0050CD551466C
:104B8000484608F071FD07E05146484608F06CFDC4
:104B9000B4F87400C00508D569464E4808F064FDB5
:104BA00042466946304608F082FDB4F82001C0054F
:104BB000204602D5FFF7D2FE01E0FFF721FE324684
:104BC0004449404608F073FD94F8740040066FD5E0
:104BD000208EB4F820110843C0056DD50FAA3946C0
:104BE000304608F0BFFED4E9172080FB0001C2FB6D
:104BF0000201626E374FC2FB02014FF08042801A01
:104C000071F1020014DB04A808F0A2FADDE9042027
:104C100080FB0001C2FB0201069AC2FB02014FF0B9
:104C20008042801A71F1020002DB0420B8630BE0BD
:104C3000B86B042808D041F28832022806D0032835
:104C400004D0012852D009E0002507E0E16E91FB75
:104C5000F2F5012D00DA0125032800D0AD0022482D
:104C600000244543109807948002294608F0C3FCAD
:104C700008900F9829464042800208F0BCFCCDE91C
:104C800009040BAA314607A808F011FD32460BA90A
:104C9000104608F0B6FC31460846FFF750FD69465D
:104CA0000C4808F0E1FC42466946304608F0FFFC3B
:104CB00012B00020BDE8F08720E00000112D445420
:104CC000FB210940000000000000704000000000CF
:104CD000008066404C69002071981C00DB0F494041
:104CE0000000344300008037A69BC400E06E90FBB8
:104CF000F2F0012800DA01204500AFE733461946FB
:104D00003846E26EFFF7A0FBC9E770B50446008E97
:104D1000C105D4F8200107D4B4F87410C90503D430
:104D2000C10501D4002070BDC0F30120032807D0C5
:104D30002046FFF700FF2348A16B09F059F9F1E77E
:104D400004F588711F482EC980E82E00F3E71E483D
:104D500009F05EB91B4810B56C21103801F06EF9EE
:104D600018484FF080411038016101600162C16351
:104D7000C165002010BD184810B5082213A10068B5
:104D800001F052F808B1322010BD1322BDE81040E6
:104D9000C8210D4808F074BE10B5FFF7DBFF0028EE
:104DA00005D1AFF22D00BDE8104008F0F1BE10BDF6
:104DB00010B5054809F02CF9AFF24500BDE81040E8
:104DC00009F04CB95C6900200B4D0008654D504C52
:104DD00020352E31000000001C01002000209FED36
:104DE000FE0AFE4ADFEDFE0A02EB8001401C81ED67
:104DF000080AC0B2C1ED0B0A0328F5D37047F74A81
:104E0000002002EB8001D1ED080A91ED2D0AF4EEAD
:104E1000C00AF1EE10FA01D281ED080AD1ED0B0AB9
:104E2000F4EEC00AF1EE10FA01DD81ED0B0A401C30
:104E3000C0B20328E5D370473EB50B46B0F8481022
:104E400009040091B0F84A10009A09040191B0F8E1
:104E50004C1009040291E1494C6E121B0092019A18
:104E60008C6E121B0192029AC96E511A0291816EC8
:104E7000B0F844006A4680B207F050FF3EBDF0B57E
:104E8000D64F00242546D7F894208DB02E46012A0F
:104E900001D1C7F8946009A9FFF7CEFF05A808F073
:104EA000C3F8059909986022A0EBA13009900699F2
:104EB0000A98A0EBA1300A9007990B98A0EBA130BB
:104EC000C8490B90081F01F052F80DF1240CC54899
:104ED0009CE80E00143080E80E00684608F038F9AF
:104EE000C04960226C31081F01F041F8BD489DE8BF
:104EF0000E00803080E80E0000210922D7F82C0433
:104F0000401CC7F82C0401EB410007EB8000DDF8E2
:104F100000C0D0F84C33491C93FBF2F31C44D0F88A
:104F20005033092993FBF2F31D44D0F8543393FB1B
:104F3000F2F31E44D0F8B83393FBF2F363440093CA
:104F4000D0F8BC33DDF804C093FBF2F36344019363
:104F5000D0F8C003029B90FBF2F018440290CDDB26
:104F6000002C00DA6442002D00DA6D42002E00DAD7
:104F700076420098002800DA40420090019800280C
:104F800000DA404201900298002800DA4042029084
:104F9000009900208C4200DA012001998D4200DA4C
:104FA000401C02998E4200DA401CD7F82C140929C3
:104FB00000DB401C04280DD197F8240402280BD9EB
:104FC00001468648D7F82824643008F051FE0120B5
:104FD00008F048FE0DB0F0BD08F036FEFAE72DE906
:104FE000F0417E4D00272DED048B06463C4685F8AA
:104FF00024749FED7D9B9FED7E8BC5F8287405EB97
:105000008400D5ED0F0A90ED330AB4EEE00AF1EE1C
:1050100010FA1EDB95ED140B53EC182B51EC100B12
:105020000DF040F941EC100B04F066FE53EC192B27
:1050300051EC100B0CF0EEFE0BD295F8240401217C
:10504000401C85F82404D5F82804A1400843C5F87D
:105050002804641CE4B2032CD1D395F82404B8B31B
:10506000002406EBC40090ED000B51EC100B0CF08B
:1050700077FE05EB8401641CE4B24866032CF0D390
:10508000C5F82C74A868042802DA95F82404A860EE
:1050900095F8240403281BD15749E868884217DC97
:1050A00095ED140B53EC182B51EC100B0DF0FAF896
:1050B00041EC100B04F020FE53EC192B51EC100BBB
:1050C0000CF0A8FE04D2A868032801D10420A8602F
:1050D0004A49286988421DDA4949E868884219DC4A
:1050E00095ED140B53EC182B51EC100B0DF0DAF876
:1050F00041EC100B04F000FE9FED421B51EC100B35
:1051000053EC112B0CF086FE04D2A868042801D1C0
:105110000520A860BDEC048BBDE8F0812DE9F041CD
:105120002E4C0746D4F8A404012802D000252846B6
:10513000F2E73649F7EE000AA1F1E800B7EE000AFF
:105140000646FBF7B2FA254A3046503202F5AC71FA
:10515000FBF74DFD0500EAD06068401C606094EDEF
:10516000140B51EC100B0CF0FBFDB96E08F043FA78
:1051700000EE100ADFED260AB8EEC00A20EE200A83
:1051800010EE100A0DF078F9C4E9140194ED6A0BE1
:1051900051EC100B0CF0E4FDA06594ED6C0B51ECA0
:1051A000100B0CF0DDFDE06594ED6E0B51EC100B77
:1051B0000CF0D6FD206694ED680B9FED161B51ECAC
:1051C000100B53EC112B0CF05FFFB0D231469FED6A
:1051D000130AF0EE400A23E000401CC6B869002024
:1051E00000401C46086D00209A9999999999B93FF9
:1051F000000000000000F03FAE47E13D00007A43B0
:10520000BC74933C9CC420B07268913F806B0020BA
:1052100000008037000000000070A740CDCCCC3EDD
:105220000846FBF742FA82E7D0ED030A90ED040A44
:1052300000210122F4EEC00A0223F1EE10FA12DD81
:1052400090ED051AF4EEC10AF1EE10FA0BDDB4EEA2
:10525000C10A0164F1EE10FA02DBC0E911237047C4
:10526000C0E911327047B4EEE00AF1EE10FA12DD37
:1052700090ED051AB4EEC10AF1EE10FA0BDDF4EE72
:10528000C10A0264F1EE10FA02DBC0E911137047A3
:10529000C0E911317047F4EEC00A0364F1EE10FA70
:1052A00002DBC0E911127047C0E9112170470023E9
:1052B00019469FEDFE0AC36400EB8102491C82ED92
:1052C000000A82ED090A0329F6DB0121C0E91D135A
:1052D000704730B504461420A0650A2020660025DA
:1052E00084F870502046FFF7E2FF656530BD70B569
:1052F0002DED048B86B06946FFF79EFD9FEDEC8B8C
:105300001FED3D9A00246E4603AD56F8240000EED2
:10531000100A05EB8400B8EEC00A20EE090A80ED01
:10532000000A20EE000A10EE100A0DF0A5F853EC6A
:10533000182B0CF0CDFA41EC180B641C032CE4DBA9
:10534000B0EE480AF0EE680A04F08CFFDA4EB0EED8
:10535000408AF0EE608A002455F824000DF08CF8A5
:1053600053EC182B0CF068FB0CF080FA00EE100ADE
:1053700006EB840000F58060641CD0ED0C0A032C61
:1053800030EE200A80ED0C0AE6DBD6F88404401CDF
:10539000C6F884040120C6F8AC0406B0BDEC048B4A
:1053A00070BD70B505462DED028B86B004AA03A929
:1053B000684608F041F89FEDBE8B00246E4606EB70
:1053C000840090ED000A20EE000A10EE100A0DF0A5
:1053D00053F853EC182B0CF07BFA41EC180B641CBF
:1053E000032CECDBB0EE480AF0EE680A04F03AFF5A
:1053F000B0EE408AF0EE608A002456F824000DF0EA
:105400003BF853EC182B0CF017FB0CF02FFA00EEC6
:10541000100A05EB8400641CD0ED000A032C30EE6A
:10542000200A80ED000AE8DB686D401C68650120F9
:10543000E86706B0BDEC028B70BDF0B504460021F4
:10544000F7EE001A9FED992A94ED140A04EB8100FF
:10545000B8EEC01AD0ED000A80EE810AB5EEC00A9F
:10546000F1EE10FA02DBB0EE401A01E0B1EE401AA4
:10547000D0ED060AF5EEC00AF1EE10FA01DAF1EE0F
:10548000600A71EE600AC0ED0C0A80ED060A94ED28
:105490000F1AD0ED092A71EE610A00EEA20AC0EEE1
:1054A000010AC0ED090AF5EEC00AF1EE10FA01DAC0
:1054B000F1EE600AC0ED030A491C80ED002A0329C1
:1054C000C2DB2046FFF7B0FEE06CB0F57A7F01DA70
:1054D000401CE06494F87070002105260423032525
:1054E0000122206C062F09D2DFE807F00309102BF8
:1054F00052376267A267E16484F87020F0BDE06F04
:105500000128FBD1022084F870000DE004EB80003C
:10551000D4ED190A90ED030AB4EEE00AF1EE10FAA8
:1055200004DB84F8703031E0A167F0BDD4ED1A0AD5
:10553000B4EEE00AF1EE10FA22D934E06267A26715
:10554000F0BD04EB8000D4ED190A90ED030AB4EE2F
:10555000E00AF1EE10FAE4DAF0BD04EB8000D4EDDD
:105560001A0A90ED030AB4EEE00AF1EE10FA07D938
:10557000006B524EB04206D9216EE06C8842EBDBE4
:1055800084F87050DAE784F87030E1646167CBE743
:1055900004EB8000D4ED1B0A90ED030AB4EEE00AA0
:1055A000F1EE10FAD8D884F87060E164C6E710B55F
:1055B000044600EE104AB8EEC00ADFED410A20EEC4
:1055C000200A9FED401AC0EE010AB6EE000A20EE56
:1055D000800A10EE100A0CF04FFF41EC100B04F0A3
:1055E0007FFA9FED391B51EC100B53EC112B0CF093
:1055F0004DFC0CF0B5FB01462F48C0E9204110BD21
:105600002DE9F04F00242DED028B91B00546049456
:1056100005940694C06E44F62061274E884206DB4E
:10562000D6F88010884210D0FFF7C1FF0DE0D6F801
:1056300048231044C6F8480388427DDBE96E814266
:1056400001D0FFF7B4FFC6F84843286BC6F8B00492
:105650002846FFF74CFE06F5906003C8814204DB44
:105660001B48FFF7EAFEC6F88444D6F8A8040128D0
:1056700002D12846FFF703FCD6F8A40401285BD129
:1056800004A807F083FD9DED040ADDED050A20EE78
:10569000000A00EEA00ADDED060A00EEA00A04F002
:1056A0001EFE86ED030ADFED0B0A15E00000000088
:1056B0000000000000000000B8690020CDCC4CBD07
:1056C000368D274000247449000000000000D041BE
:1056D000E86D00200000804620EE200AC149A14666
:1056E000ADF82040BDEEC00A099110EE100AADF8E9
:1056F0001C00ADF81E4007A8FDF7BEFA684607F08B
:1057000085FD316F009807F076FF0446716F0198B0
:1057100007F071FF0444B16F029807F06CFF044476
:10572000F16F039807F067FF04EB00089DE80F0096
:1057300000240DF1340A00E0A2E006F170079FEDAD
:10574000AA8A87E80F000DF1280B05EB4407A96E24
:1057500037F8480F000407F04EFF00EE100A4AF831
:10576000240006EB8400B8EEC00A20EE080A80EDA3
:10577000050A388801044BF82410641CE4B2032C99
:10578000E3D398480AA9E8380446FBF75EF8316885
:10579000D6F82803884273DB95ED390AD6ED360A30
:1057A000B8EEC00AF5EEC00A20EE080AF1EE10FAD3
:1057B00005D070EE600AF0EEE00AC6ED370A86ED1D
:1057C000360AB068062818D2DFE800F003030303A6
:1057D0000D249FED860AC82086ED0E0AB7EE000A5A
:1057E00086ED0F0A08E09FED820A86ED0E0A9FED16
:1057F000810A642086ED0F0A3064288EC00509985E
:1058000012D4FDF748F90CF065FE00EE100A5FEDCA
:10581000530A11E09FED780A86ED0E0A9FED770A94
:10582000322086ED0F0AE7E7FDF78FF80CF052FE05
:1058300000EE100ADFED720A982180EE201A86ED44
:10584000041A099800F0FAFBD6F88410414543DAAF
:1058500096ED040AB5EEC00AF1EE10FA3CDDD6ED85
:105860000E0AB4EEE00AF1EE10FA35D2316C70682F
:10587000884206DA2846FFF751FC002859D00CE090
:1058800056E06049D6F8B000884206DB2846FFF7AC
:1058900045FC00284DD0C6F80490002006EB80019E
:1058A000401C91ED050AC0B281ED2D0A0328F5D305
:1058B000FFF7A5FA002006EB8001401C91ED080AD5
:1058C000D1ED0B0AC0B2032830EE600A81ED330A35
:1058D000F1D34D48FFF783FB002006EB8001401C0D
:1058E00091ED260AD1ED050AC0B2032830EE600A18
:1058F000B0EEC00A81ED290AEFD396ED290AD6ED64
:105900002A0A002030EE200AD6ED2B0A30EE200ABB
:1059100086ED2C0A06EB8001401C91ED050AC0B211
:1059200081ED260A0328F5D3E821204600F086FB06
:10593000002011B0BDEC028BBDE8F08F10B54FF424
:105940009761324800F07AFB304C0A202060400713
:105950002067FFF743FA04F58660FFF7BAFC20687A
:10596000C4F880049FED2A0A04F580601E2180EDB2
:105970001B0A9FED280AC4F88C1480ED260A9FEDBF
:10598000260A80ED250A9FED250A80ED270A1920B9
:10599000FDF722FC002010BD012240F25231AFF28F
:1059A0009F3008F06DB8AFF2A73008F031BB10B5EA
:1059B000FFF7C4FF002805D1AFF22300BDE8104077
:1059C00008F0E6B810BD10B5AFF2CB3008F020FB00
:1059D000AFF23B00BDE8104008F040BB0B488068C8
:1059E00070470000686C0020000080370080BB44D6
:1059F000000096439A99993F000070423333B33FB9
:105A00000050C347CDCC4C3D606B0020B8690020EE
:105A100000000042CDCCCC3ECDCC4C3F3333333FA5
:105A20007047B2F120030AD5C2F1200301FA02F156
:105A300020FA03F300FA02F041EA0301704700FA8A
:105A400003F14FF000007047B2F120030AD5C2F114
:105A5000200320FA02F001FA03F341FA02F140EACE
:105A60000300704741FA03F04FEAE171704710B547
:105A70004C1084EA530404D54042C1F1000138BF00
:105A8000491E1B4204D55242C3F1000338BF5B1EBE
:105A900000F0FFFA14F0804F04D04042C1F1000141
:105AA00038BF491E14F0004F04D05242C3F1000326
:105AB00038BF5B1E10BD00001CB50C46064B7B4476
:105AC00069460090204600F0F8FD04460020694633
:105AD00000F006FE20461CBD1F0C00000FB4044958
